{
	"data": {
		"bytecode": {
			"linkReferences": {},
			"object": "608060405234801562000010575f80fd5b50620000216200002860201b60201c565b506200021a565b6060336040516020016200003d9190620000f1565b6040516020818303038152906040526040516020016200005e9190620001f5565b604051602081830303815290604052905090565b5f73ffffffffffffffffffffffffffffffffffffffff82169050919050565b5f6200009d8262000072565b9050919050565b5f8160601b9050919050565b5f620000bc82620000a4565b9050919050565b5f620000cf82620000b0565b9050919050565b620000eb620000e58262000091565b620000c3565b82525050565b5f620000fe8284620000d6565b60148201915081905092915050565b5f81519050919050565b5f81905092915050565b5f5b838110156200014057808201518184015260208101905062000123565b5f8484015250505050565b5f62000157826200010d565b62000163818562000117565b93506200017581856020860162000121565b80840191505092915050565b7f204164647265737320697320747279696e6720746f2063617374206120766f745f8201527f652e2e2e00000000000000000000000000000000000000000000000000000000602082015250565b5f620001dd60248362000117565b9150620001ea8262000181565b602482019050919050565b5f6200020282846200014b565b91506200020f82620001cf565b915081905092915050565b610bf980620002285f395ff3fe608060405260043610610054575f3560e01c806353358fc414610058578063a502522214610074578063b810fb43146100b0578063b8f7c1a4146100ec578063d3359b8c14610116578063e05ce47414610140575b5f80fd5b610072600480360381019061006d91906104a6565b61016a565b005b34801561007f575f80fd5b5061009a600480360381019061009591906104a6565b610299565b6040516100a791906104eb565b60405180910390f35b3480156100bb575f80fd5b506100d660048036038101906100d19190610537565b61033b565b6040516100e39190610571565b60405180910390f35b3480156100f7575f80fd5b50610100610376565b60405161010d9190610614565b60405180910390f35b348015610121575f80fd5b5061012a6103bc565b6040516101379190610614565b60405180910390f35b34801561014b575f80fd5b50610154610402565b6040516101619190610614565b60405180910390f35b5f3460405160200161017c9190610654565b604051602081830303815290604052905061019682610299565b61028b577fa1d3c6bd2efb90f6f952f615752aa21743c70052e47b85ad1e7cacb1c4cb410433826040516101cb92919061066e565b60405180910390a1805f803373ffffffffffffffffffffffffffffffffffffffff1673ffffffffffffffffffffffffffffffffffffffff1681526020019081526020015f20908161021c91906108c3565b50600182908060018154018082558091505060019003905f5260205f20015f9091909190916101000a81548173ffffffffffffffffffffffffffffffffffffffff021916908373ffffffffffffffffffffffffffffffffffffffff1602179055506102856103bc565b50610295565b610293610376565b505b5050565b5f805f90505b600180549050811015610331578273ffffffffffffffffffffffffffffffffffffffff16600182815481106102d7576102d6610992565b5b905f5260205f20015f9054906101000a900473ffffffffffffffffffffffffffffffffffffffff1673ffffffffffffffffffffffffffffffffffffffff1603610324576001915050610336565b808060010191505061029f565b505f90505b919050565b6001818154811061034a575f80fd5b905f5260205f20015f915054906101000a900473ffffffffffffffffffffffffffffffffffffffff1681565b6060336040516020016103899190610a04565b6040516020818303038152906040526040516020016103a89190610aa4565b604051602081830303815290604052905090565b6060336040516020016103cf9190610a04565b6040516020818303038152906040526040516020016103ee9190610afe565b604051602081830303815290604052905090565b6060336040516020016104159190610a04565b6040516020818303038152906040526040516020016104349190610ba2565b604051602081830303815290604052905090565b5f80fd5b5f73ffffffffffffffffffffffffffffffffffffffff82169050919050565b5f6104758261044c565b9050919050565b6104858161046b565b811461048f575f80fd5b50565b5f813590506104a08161047c565b92915050565b5f602082840312156104bb576104ba610448565b5b5f6104c884828501610492565b91505092915050565b5f8115159050919050565b6104e5816104d1565b82525050565b5f6020820190506104fe5f8301846104dc565b92915050565b5f819050919050565b61051681610504565b8114610520575f80fd5b50565b5f813590506105318161050d565b92915050565b5f6020828403121561054c5761054b610448565b5b5f61055984828501610523565b91505092915050565b61056b8161046b565b82525050565b5f6020820190506105845f830184610562565b92915050565b5f81519050919050565b5f82825260208201905092915050565b5f5b838110156105c15780820151818401526020810190506105a6565b5f8484015250505050565b5f601f19601f8301169050919050565b5f6105e68261058a565b6105f08185610594565b93506106008185602086016105a4565b610609816105cc565b840191505092915050565b5f6020820190508181035f83015261062c81846105dc565b905092915050565b5f819050919050565b61064e61064982610504565b610634565b82525050565b5f61065f828461063d565b60208201915081905092915050565b5f6040820190506106815f830185610562565b818103602083015261069381846105dc565b90509392505050565b7f4e487b71000000000000000000000000000000000000000000000000000000005f52604160045260245ffd5b7f4e487b71000000000000000000000000000000000000000000000000000000005f52602260045260245ffd5b5f600282049050600182168061070d57607f821691505b6020821081036107205761071f6106c9565b5b50919050565b5f819050815f5260205f209050919050565b5f6020601f8301049050919050565b5f82821b905092915050565b5f600883026107827fffffffffffffffffffffffffffffffffffffffffffffffffffffffffffffffff82610747565b61078c8683610747565b95508019841693508086168417925050509392505050565b5f819050919050565b5f6107c76107c26107bd84610504565b6107a4565b610504565b9050919050565b5f819050919050565b6107e0836107ad565b6107f46107ec826107ce565b848454610753565b825550505050565b5f90565b6108086107fc565b6108138184846107d7565b505050565b5b818110156108365761082b5f82610800565b600181019050610819565b5050565b601f82111561087b5761084c81610726565b61085584610738565b81016020851015610864578190505b61087861087085610738565b830182610818565b50505b505050565b5f82821c905092915050565b5f61089b5f1984600802610880565b1980831691505092915050565b5f6108b3838361088c565b9150826002028217905092915050565b6108cc8261058a565b67ffffffffffffffff8111156108e5576108e461069c565b5b6108ef82546106f6565b6108fa82828561083a565b5f60209050601f83116001811461092b575f8415610919578287015190505b61092385826108a8565b86555061098a565b601f19841661093986610726565b5f5b828110156109605784890151825560018201915060208501945060208101905061093b565b8683101561097d5784890151610979601f89168261088c565b8355505b6001600288020188555050505b505050505050565b7f4e487b71000000000000000000000000000000000000000000000000000000005f52603260045260245ffd5b5f8160601b9050919050565b5f6109d5826109bf565b9050919050565b5f6109e6826109cb565b9050919050565b6109fe6109f98261046b565b6109dc565b82525050565b5f610a0f82846109ed565b60148201915081905092915050565b7f4163636f756e7420776974682061646472657373200000000000000000000000815250565b5f81905092915050565b5f610a588261058a565b610a628185610a44565b9350610a728185602086016105a4565b80840191505092915050565b7f2068617320616c72656164792063617374206120766f74652121000000000000815250565b5f610aae82610a1e565b601582019150610abe8284610a4e565b9150610ac982610a7e565b601a8201915081905092915050565b7f206861732063617374206120766f746500000000000000000000000000000000815250565b5f610b0882610a1e565b601582019150610b188284610a4e565b9150610b2382610ad8565b60108201915081905092915050565b7f204164647265737320697320747279696e6720746f2063617374206120766f745f8201527f652e2e2e00000000000000000000000000000000000000000000000000000000602082015250565b5f610b8c602483610a44565b9150610b9782610b32565b602482019050919050565b5f610bad8284610a4e565b9150610bb882610b80565b91508190509291505056fea264697066735822122024fcee7ec4cee6d1d54603ef17ee72a3f37b08c04b0ef468978b0268dab2250964736f6c63430008160033",
			"opcodes": "PUSH1 0x80 PUSH1 0x40 MSTORE CALLVALUE DUP1 ISZERO PUSH3 0x10 JUMPI PUSH0 DUP1 REVERT JUMPDEST POP PUSH3 0x21 PUSH3 0x28 PUSH1 0x20 SHL PUSH1 0x20 SHR JUMP JUMPDEST POP PUSH3 0x21A JUMP JUMPDEST PUSH1 0x60 CALLER PUSH1 0x40 MLOAD PUSH1 0x20 ADD PUSH3 0x3D SWAP2 SWAP1 PUSH3 0xF1 JUMP JUMPDEST PUSH1 0x40 MLOAD PUSH1 0x20 DUP2 DUP4 SUB SUB DUP2 MSTORE SWAP1 PUSH1 0x40 MSTORE PUSH1 0x40 MLOAD PUSH1 0x20 ADD PUSH3 0x5E SWAP2 SWAP1 PUSH3 0x1F5 JUMP JUMPDEST PUSH1 0x40 MLOAD PUSH1 0x20 DUP2 DUP4 SUB SUB DUP2 MSTORE SWAP1 PUSH1 0x40 MSTORE SWAP1 POP SWAP1 JUMP JUMPDEST PUSH0 PUSH20 0xFFFFFFFFFFFFFFFFFFFFFFFFFFFFFFFFFFFFFFFF DUP3 AND SWAP1 POP SWAP2 SWAP1 POP JUMP JUMPDEST PUSH0 PUSH3 0x9D DUP3 PUSH3 0x72 JUMP JUMPDEST SWAP1 POP SWAP2 SWAP1 POP JUMP JUMPDEST PUSH0 DUP2 PUSH1 0x60 SHL SWAP1 POP SWAP2 SWAP1 POP JUMP JUMPDEST PUSH0 PUSH3 0xBC DUP3 PUSH3 0xA4 JUMP JUMPDEST SWAP1 POP SWAP2 SWAP1 POP JUMP JUMPDEST PUSH0 PUSH3 0xCF DUP3 PUSH3 0xB0 JUMP JUMPDEST SWAP1 POP SWAP2 SWAP1 POP JUMP JUMPDEST PUSH3 0xEB PUSH3 0xE5 DUP3 PUSH3 0x91 JUMP JUMPDEST PUSH3 0xC3 JUMP JUMPDEST DUP3 MSTORE POP POP JUMP JUMPDEST PUSH0 PUSH3 0xFE DUP3 DUP5 PUSH3 0xD6 JUMP JUMPDEST PUSH1 0x14 DUP3 ADD SWAP2 POP DUP2 SWAP1 POP SWAP3 SWAP2 POP POP JUMP JUMPDEST PUSH0 DUP2 MLOAD SWAP1 POP SWAP2 SWAP1 POP JUMP JUMPDEST PUSH0 DUP2 SWAP1 POP SWAP3 SWAP2 POP POP JUMP JUMPDEST PUSH0 JUMPDEST DUP4 DUP2 LT ISZERO PUSH3 0x140 JUMPI DUP1 DUP3 ADD MLOAD DUP2 DUP5 ADD MSTORE PUSH1 0x20 DUP2 ADD SWAP1 POP PUSH3 0x123 JUMP JUMPDEST PUSH0 DUP5 DUP5 ADD MSTORE POP POP POP POP JUMP JUMPDEST PUSH0 PUSH3 0x157 DUP3 PUSH3 0x10D JUMP JUMPDEST PUSH3 0x163 DUP2 DUP6 PUSH3 0x117 JUMP JUMPDEST SWAP4 POP PUSH3 0x175 DUP2 DUP6 PUSH1 0x20 DUP7 ADD PUSH3 0x121 JUMP JUMPDEST DUP1 DUP5 ADD SWAP2 POP POP SWAP3 SWAP2 POP POP JUMP JUMPDEST PUSH32 0x204164647265737320697320747279696E6720746F2063617374206120766F74 PUSH0 DUP3 ADD MSTORE PUSH32 0x652E2E2E00000000000000000000000000000000000000000000000000000000 PUSH1 0x20 DUP3 ADD MSTORE POP JUMP JUMPDEST PUSH0 PUSH3 0x1DD PUSH1 0x24 DUP4 PUSH3 0x117 JUMP JUMPDEST SWAP2 POP PUSH3 0x1EA DUP3 PUSH3 0x181 JUMP JUMPDEST PUSH1 0x24 DUP3 ADD SWAP1 POP SWAP2 SWAP1 POP JUMP JUMPDEST PUSH0 PUSH3 0x202 DUP3 DUP5 PUSH3 0x14B JUMP JUMPDEST SWAP2 POP PUSH3 0x20F DUP3 PUSH3 0x1CF JUMP JUMPDEST SWAP2 POP DUP2 SWAP1 POP SWAP3 SWAP2 POP POP JUMP JUMPDEST PUSH2 0xBF9 DUP1 PUSH3 0x228 PUSH0 CODECOPY PUSH0 RETURN INVALID PUSH1 0x80 PUSH1 0x40 MSTORE PUSH1 0x4 CALLDATASIZE LT PUSH2 0x54 JUMPI PUSH0 CALLDATALOAD PUSH1 0xE0 SHR DUP1 PUSH4 0x53358FC4 EQ PUSH2 0x58 JUMPI DUP1 PUSH4 0xA5025222 EQ PUSH2 0x74 JUMPI DUP1 PUSH4 0xB810FB43 EQ PUSH2 0xB0 JUMPI DUP1 PUSH4 0xB8F7C1A4 EQ PUSH2 0xEC JUMPI DUP1 PUSH4 0xD3359B8C EQ PUSH2 0x116 JUMPI DUP1 PUSH4 0xE05CE474 EQ PUSH2 0x140 JUMPI JUMPDEST PUSH0 DUP1 REVERT JUMPDEST PUSH2 0x72 PUSH1 0x4 DUP1 CALLDATASIZE SUB DUP2 ADD SWAP1 PUSH2 0x6D SWAP2 SWAP1 PUSH2 0x4A6 JUMP JUMPDEST PUSH2 0x16A JUMP JUMPDEST STOP JUMPDEST CALLVALUE DUP1 ISZERO PUSH2 0x7F JUMPI PUSH0 DUP1 REVERT JUMPDEST POP PUSH2 0x9A PUSH1 0x4 DUP1 CALLDATASIZE SUB DUP2 ADD SWAP1 PUSH2 0x95 SWAP2 SWAP1 PUSH2 0x4A6 JUMP JUMPDEST PUSH2 0x299 JUMP JUMPDEST PUSH1 0x40 MLOAD PUSH2 0xA7 SWAP2 SWAP1 PUSH2 0x4EB JUMP JUMPDEST PUSH1 0x40 MLOAD DUP1 SWAP2 SUB SWAP1 RETURN JUMPDEST CALLVALUE DUP1 ISZERO PUSH2 0xBB JUMPI PUSH0 DUP1 REVERT JUMPDEST POP PUSH2 0xD6 PUSH1 0x4 DUP1 CALLDATASIZE SUB DUP2 ADD SWAP1 PUSH2 0xD1 SWAP2 SWAP1 PUSH2 0x537 JUMP JUMPDEST PUSH2 0x33B JUMP JUMPDEST PUSH1 0x40 MLOAD PUSH2 0xE3 SWAP2 SWAP1 PUSH2 0x571 JUMP JUMPDEST PUSH1 0x40 MLOAD DUP1 SWAP2 SUB SWAP1 RETURN JUMPDEST CALLVALUE DUP1 ISZERO PUSH2 0xF7 JUMPI PUSH0 DUP1 REVERT JUMPDEST POP PUSH2 0x100 PUSH2 0x376 JUMP JUMPDEST PUSH1 0x40 MLOAD PUSH2 0x10D SWAP2 SWAP1 PUSH2 0x614 JUMP JUMPDEST PUSH1 0x40 MLOAD DUP1 SWAP2 SUB SWAP1 RETURN JUMPDEST CALLVALUE DUP1 ISZERO PUSH2 0x121 JUMPI PUSH0 DUP1 REVERT JUMPDEST POP PUSH2 0x12A PUSH2 0x3BC JUMP JUMPDEST PUSH1 0x40 MLOAD PUSH2 0x137 SWAP2 SWAP1 PUSH2 0x614 JUMP JUMPDEST PUSH1 0x40 MLOAD DUP1 SWAP2 SUB SWAP1 RETURN JUMPDEST CALLVALUE DUP1 ISZERO PUSH2 0x14B JUMPI PUSH0 DUP1 REVERT JUMPDEST POP PUSH2 0x154 PUSH2 0x402 JUMP JUMPDEST PUSH1 0x40 MLOAD PUSH2 0x161 SWAP2 SWAP1 PUSH2 0x614 JUMP JUMPDEST PUSH1 0x40 MLOAD DUP1 SWAP2 SUB SWAP1 RETURN JUMPDEST PUSH0 CALLVALUE PUSH1 0x40 MLOAD PUSH1 0x20 ADD PUSH2 0x17C SWAP2 SWAP1 PUSH2 0x654 JUMP JUMPDEST PUSH1 0x40 MLOAD PUSH1 0x20 DUP2 DUP4 SUB SUB DUP2 MSTORE SWAP1 PUSH1 0x40 MSTORE SWAP1 POP PUSH2 0x196 DUP3 PUSH2 0x299 JUMP JUMPDEST PUSH2 0x28B JUMPI PUSH32 0xA1D3C6BD2EFB90F6F952F615752AA21743C70052E47B85AD1E7CACB1C4CB4104 CALLER DUP3 PUSH1 0x40 MLOAD PUSH2 0x1CB SWAP3 SWAP2 SWAP1 PUSH2 0x66E JUMP JUMPDEST PUSH1 0x40 MLOAD DUP1 SWAP2 SUB SWAP1 LOG1 DUP1 PUSH0 DUP1 CALLER PUSH20 0xFFFFFFFFFFFFFFFFFFFFFFFFFFFFFFFFFFFFFFFF AND PUSH20 0xFFFFFFFFFFFFFFFFFFFFFFFFFFFFFFFFFFFFFFFF AND DUP2 MSTORE PUSH1 0x20 ADD SWAP1 DUP2 MSTORE PUSH1 0x20 ADD PUSH0 KECCAK256 SWAP1 DUP2 PUSH2 0x21C SWAP2 SWAP1 PUSH2 0x8C3 JUMP JUMPDEST POP PUSH1 0x1 DUP3 SWAP1 DUP1 PUSH1 0x1 DUP2 SLOAD ADD DUP1 DUP3 SSTORE DUP1 SWAP2 POP POP PUSH1 0x1 SWAP1 SUB SWAP1 PUSH0 MSTORE PUSH1 0x20 PUSH0 KECCAK256 ADD PUSH0 SWAP1 SWAP2 SWAP1 SWAP2 SWAP1 SWAP2 PUSH2 0x100 EXP DUP2 SLOAD DUP2 PUSH20 0xFFFFFFFFFFFFFFFFFFFFFFFFFFFFFFFFFFFFFFFF MUL NOT AND SWAP1 DUP4 PUSH20 0xFFFFFFFFFFFFFFFFFFFFFFFFFFFFFFFFFFFFFFFF AND MUL OR SWAP1 SSTORE POP PUSH2 0x285 PUSH2 0x3BC JUMP JUMPDEST POP PUSH2 0x295 JUMP JUMPDEST PUSH2 0x293 PUSH2 0x376 JUMP JUMPDEST POP JUMPDEST POP POP JUMP JUMPDEST PUSH0 DUP1 PUSH0 SWAP1 POP JUMPDEST PUSH1 0x1 DUP1 SLOAD SWAP1 POP DUP2 LT ISZERO PUSH2 0x331 JUMPI DUP3 PUSH20 0xFFFFFFFFFFFFFFFFFFFFFFFFFFFFFFFFFFFFFFFF AND PUSH1 0x1 DUP3 DUP2 SLOAD DUP2 LT PUSH2 0x2D7 JUMPI PUSH2 0x2D6 PUSH2 0x992 JUMP JUMPDEST JUMPDEST SWAP1 PUSH0 MSTORE PUSH1 0x20 PUSH0 KECCAK256 ADD PUSH0 SWAP1 SLOAD SWAP1 PUSH2 0x100 EXP SWAP1 DIV PUSH20 0xFFFFFFFFFFFFFFFFFFFFFFFFFFFFFFFFFFFFFFFF AND PUSH20 0xFFFFFFFFFFFFFFFFFFFFFFFFFFFFFFFFFFFFFFFF AND SUB PUSH2 0x324 JUMPI PUSH1 0x1 SWAP2 POP POP PUSH2 0x336 JUMP JUMPDEST DUP1 DUP1 PUSH1 0x1 ADD SWAP2 POP POP PUSH2 0x29F JUMP JUMPDEST POP PUSH0 SWAP1 POP JUMPDEST SWAP2 SWAP1 POP JUMP JUMPDEST PUSH1 0x1 DUP2 DUP2 SLOAD DUP2 LT PUSH2 0x34A JUMPI PUSH0 DUP1 REVERT JUMPDEST SWAP1 PUSH0 MSTORE PUSH1 0x20 PUSH0 KECCAK256 ADD PUSH0 SWAP2 POP SLOAD SWAP1 PUSH2 0x100 EXP SWAP1 DIV PUSH20 0xFFFFFFFFFFFFFFFFFFFFFFFFFFFFFFFFFFFFFFFF AND DUP2 JUMP JUMPDEST PUSH1 0x60 CALLER PUSH1 0x40 MLOAD PUSH1 0x20 ADD PUSH2 0x389 SWAP2 SWAP1 PUSH2 0xA04 JUMP JUMPDEST PUSH1 0x40 MLOAD PUSH1 0x20 DUP2 DUP4 SUB SUB DUP2 MSTORE SWAP1 PUSH1 0x40 MSTORE PUSH1 0x40 MLOAD PUSH1 0x20 ADD PUSH2 0x3A8 SWAP2 SWAP1 PUSH2 0xAA4 JUMP JUMPDEST PUSH1 0x40 MLOAD PUSH1 0x20 DUP2 DUP4 SUB SUB DUP2 MSTORE SWAP1 PUSH1 0x40 MSTORE SWAP1 POP SWAP1 JUMP JUMPDEST PUSH1 0x60 CALLER PUSH1 0x40 MLOAD PUSH1 0x20 ADD PUSH2 0x3CF SWAP2 SWAP1 PUSH2 0xA04 JUMP JUMPDEST PUSH1 0x40 MLOAD PUSH1 0x20 DUP2 DUP4 SUB SUB DUP2 MSTORE SWAP1 PUSH1 0x40 MSTORE PUSH1 0x40 MLOAD PUSH1 0x20 ADD PUSH2 0x3EE SWAP2 SWAP1 PUSH2 0xAFE JUMP JUMPDEST PUSH1 0x40 MLOAD PUSH1 0x20 DUP2 DUP4 SUB SUB DUP2 MSTORE SWAP1 PUSH1 0x40 MSTORE SWAP1 POP SWAP1 JUMP JUMPDEST PUSH1 0x60 CALLER PUSH1 0x40 MLOAD PUSH1 0x20 ADD PUSH2 0x415 SWAP2 SWAP1 PUSH2 0xA04 JUMP JUMPDEST PUSH1 0x40 MLOAD PUSH1 0x20 DUP2 DUP4 SUB SUB DUP2 MSTORE SWAP1 PUSH1 0x40 MSTORE PUSH1 0x40 MLOAD PUSH1 0x20 ADD PUSH2 0x434 SWAP2 SWAP1 PUSH2 0xBA2 JUMP JUMPDEST PUSH1 0x40 MLOAD PUSH1 0x20 DUP2 DUP4 SUB SUB DUP2 MSTORE SWAP1 PUSH1 0x40 MSTORE SWAP1 POP SWAP1 JUMP JUMPDEST PUSH0 DUP1 REVERT JUMPDEST PUSH0 PUSH20 0xFFFFFFFFFFFFFFFFFFFFFFFFFFFFFFFFFFFFFFFF DUP3 AND SWAP1 POP SWAP2 SWAP1 POP JUMP JUMPDEST PUSH0 PUSH2 0x475 DUP3 PUSH2 0x44C JUMP JUMPDEST SWAP1 POP SWAP2 SWAP1 POP JUMP JUMPDEST PUSH2 0x485 DUP2 PUSH2 0x46B JUMP JUMPDEST DUP2 EQ PUSH2 0x48F JUMPI PUSH0 DUP1 REVERT JUMPDEST POP JUMP JUMPDEST PUSH0 DUP2 CALLDATALOAD SWAP1 POP PUSH2 0x4A0 DUP2 PUSH2 0x47C JUMP JUMPDEST SWAP3 SWAP2 POP POP JUMP JUMPDEST PUSH0 PUSH1 0x20 DUP3 DUP5 SUB SLT ISZERO PUSH2 0x4BB JUMPI PUSH2 0x4BA PUSH2 0x448 JUMP JUMPDEST JUMPDEST PUSH0 PUSH2 0x4C8 DUP5 DUP3 DUP6 ADD PUSH2 0x492 JUMP JUMPDEST SWAP2 POP POP SWAP3 SWAP2 POP POP JUMP JUMPDEST PUSH0 DUP2 ISZERO ISZERO SWAP1 POP SWAP2 SWAP1 POP JUMP JUMPDEST PUSH2 0x4E5 DUP2 PUSH2 0x4D1 JUMP JUMPDEST DUP3 MSTORE POP POP JUMP JUMPDEST PUSH0 PUSH1 0x20 DUP3 ADD SWAP1 POP PUSH2 0x4FE PUSH0 DUP4 ADD DUP5 PUSH2 0x4DC JUMP JUMPDEST SWAP3 SWAP2 POP POP JUMP JUMPDEST PUSH0 DUP2 SWAP1 POP SWAP2 SWAP1 POP JUMP JUMPDEST PUSH2 0x516 DUP2 PUSH2 0x504 JUMP JUMPDEST DUP2 EQ PUSH2 0x520 JUMPI PUSH0 DUP1 REVERT JUMPDEST POP JUMP JUMPDEST PUSH0 DUP2 CALLDATALOAD SWAP1 POP PUSH2 0x531 DUP2 PUSH2 0x50D JUMP JUMPDEST SWAP3 SWAP2 POP POP JUMP JUMPDEST PUSH0 PUSH1 0x20 DUP3 DUP5 SUB SLT ISZERO PUSH2 0x54C JUMPI PUSH2 0x54B PUSH2 0x448 JUMP JUMPDEST JUMPDEST PUSH0 PUSH2 0x559 DUP5 DUP3 DUP6 ADD PUSH2 0x523 JUMP JUMPDEST SWAP2 POP POP SWAP3 SWAP2 POP POP JUMP JUMPDEST PUSH2 0x56B DUP2 PUSH2 0x46B JUMP JUMPDEST DUP3 MSTORE POP POP JUMP JUMPDEST PUSH0 PUSH1 0x20 DUP3 ADD SWAP1 POP PUSH2 0x584 PUSH0 DUP4 ADD DUP5 PUSH2 0x562 JUMP JUMPDEST SWAP3 SWAP2 POP POP JUMP JUMPDEST PUSH0 DUP2 MLOAD SWAP1 POP SWAP2 SWAP1 POP JUMP JUMPDEST PUSH0 DUP3 DUP3 MSTORE PUSH1 0x20 DUP3 ADD SWAP1 POP SWAP3 SWAP2 POP POP JUMP JUMPDEST PUSH0 JUMPDEST DUP4 DUP2 LT ISZERO PUSH2 0x5C1 JUMPI DUP1 DUP3 ADD MLOAD DUP2 DUP5 ADD MSTORE PUSH1 0x20 DUP2 ADD SWAP1 POP PUSH2 0x5A6 JUMP JUMPDEST PUSH0 DUP5 DUP5 ADD MSTORE POP POP POP POP JUMP JUMPDEST PUSH0 PUSH1 0x1F NOT PUSH1 0x1F DUP4 ADD AND SWAP1 POP SWAP2 SWAP1 POP JUMP JUMPDEST PUSH0 PUSH2 0x5E6 DUP3 PUSH2 0x58A JUMP JUMPDEST PUSH2 0x5F0 DUP2 DUP6 PUSH2 0x594 JUMP JUMPDEST SWAP4 POP PUSH2 0x600 DUP2 DUP6 PUSH1 0x20 DUP7 ADD PUSH2 0x5A4 JUMP JUMPDEST PUSH2 0x609 DUP2 PUSH2 0x5CC JUMP JUMPDEST DUP5 ADD SWAP2 POP POP SWAP3 SWAP2 POP POP JUMP JUMPDEST PUSH0 PUSH1 0x20 DUP3 ADD SWAP1 POP DUP2 DUP2 SUB PUSH0 DUP4 ADD MSTORE PUSH2 0x62C DUP2 DUP5 PUSH2 0x5DC JUMP JUMPDEST SWAP1 POP SWAP3 SWAP2 POP POP JUMP JUMPDEST PUSH0 DUP2 SWAP1 POP SWAP2 SWAP1 POP JUMP JUMPDEST PUSH2 0x64E PUSH2 0x649 DUP3 PUSH2 0x504 JUMP JUMPDEST PUSH2 0x634 JUMP JUMPDEST DUP3 MSTORE POP POP JUMP JUMPDEST PUSH0 PUSH2 0x65F DUP3 DUP5 PUSH2 0x63D JUMP JUMPDEST PUSH1 0x20 DUP3 ADD SWAP2 POP DUP2 SWAP1 POP SWAP3 SWAP2 POP POP JUMP JUMPDEST PUSH0 PUSH1 0x40 DUP3 ADD SWAP1 POP PUSH2 0x681 PUSH0 DUP4 ADD DUP6 PUSH2 0x562 JUMP JUMPDEST DUP2 DUP2 SUB PUSH1 0x20 DUP4 ADD MSTORE PUSH2 0x693 DUP2 DUP5 PUSH2 0x5DC JUMP JUMPDEST SWAP1 POP SWAP4 SWAP3 POP POP POP JUMP JUMPDEST PUSH32 0x4E487B7100000000000000000000000000000000000000000000000000000000 PUSH0 MSTORE PUSH1 0x41 PUSH1 0x4 MSTORE PUSH1 0x24 PUSH0 REVERT JUMPDEST PUSH32 0x4E487B7100000000000000000000000000000000000000000000000000000000 PUSH0 MSTORE PUSH1 0x22 PUSH1 0x4 MSTORE PUSH1 0x24 PUSH0 REVERT JUMPDEST PUSH0 PUSH1 0x2 DUP3 DIV SWAP1 POP PUSH1 0x1 DUP3 AND DUP1 PUSH2 0x70D JUMPI PUSH1 0x7F DUP3 AND SWAP2 POP JUMPDEST PUSH1 0x20 DUP3 LT DUP2 SUB PUSH2 0x720 JUMPI PUSH2 0x71F PUSH2 0x6C9 JUMP JUMPDEST JUMPDEST POP SWAP2 SWAP1 POP JUMP JUMPDEST PUSH0 DUP2 SWAP1 POP DUP2 PUSH0 MSTORE PUSH1 0x20 PUSH0 KECCAK256 SWAP1 POP SWAP2 SWAP1 POP JUMP JUMPDEST PUSH0 PUSH1 0x20 PUSH1 0x1F DUP4 ADD DIV SWAP1 POP SWAP2 SWAP1 POP JUMP JUMPDEST PUSH0 DUP3 DUP3 SHL SWAP1 POP SWAP3 SWAP2 POP POP JUMP JUMPDEST PUSH0 PUSH1 0x8 DUP4 MUL PUSH2 0x782 PUSH32 0xFFFFFFFFFFFFFFFFFFFFFFFFFFFFFFFFFFFFFFFFFFFFFFFFFFFFFFFFFFFFFFFF DUP3 PUSH2 0x747 JUMP JUMPDEST PUSH2 0x78C DUP7 DUP4 PUSH2 0x747 JUMP JUMPDEST SWAP6 POP DUP1 NOT DUP5 AND SWAP4 POP DUP1 DUP7 AND DUP5 OR SWAP3 POP POP POP SWAP4 SWAP3 POP POP POP JUMP JUMPDEST PUSH0 DUP2 SWAP1 POP SWAP2 SWAP1 POP JUMP JUMPDEST PUSH0 PUSH2 0x7C7 PUSH2 0x7C2 PUSH2 0x7BD DUP5 PUSH2 0x504 JUMP JUMPDEST PUSH2 0x7A4 JUMP JUMPDEST PUSH2 0x504 JUMP JUMPDEST SWAP1 POP SWAP2 SWAP1 POP JUMP JUMPDEST PUSH0 DUP2 SWAP1 POP SWAP2 SWAP1 POP JUMP JUMPDEST PUSH2 0x7E0 DUP4 PUSH2 0x7AD JUMP JUMPDEST PUSH2 0x7F4 PUSH2 0x7EC DUP3 PUSH2 0x7CE JUMP JUMPDEST DUP5 DUP5 SLOAD PUSH2 0x753 JUMP JUMPDEST DUP3 SSTORE POP POP POP POP JUMP JUMPDEST PUSH0 SWAP1 JUMP JUMPDEST PUSH2 0x808 PUSH2 0x7FC JUMP JUMPDEST PUSH2 0x813 DUP2 DUP5 DUP5 PUSH2 0x7D7 JUMP JUMPDEST POP POP POP JUMP JUMPDEST JUMPDEST DUP2 DUP2 LT ISZERO PUSH2 0x836 JUMPI PUSH2 0x82B PUSH0 DUP3 PUSH2 0x800 JUMP JUMPDEST PUSH1 0x1 DUP2 ADD SWAP1 POP PUSH2 0x819 JUMP JUMPDEST POP POP JUMP JUMPDEST PUSH1 0x1F DUP3 GT ISZERO PUSH2 0x87B JUMPI PUSH2 0x84C DUP2 PUSH2 0x726 JUMP JUMPDEST PUSH2 0x855 DUP5 PUSH2 0x738 JUMP JUMPDEST DUP2 ADD PUSH1 0x20 DUP6 LT ISZERO PUSH2 0x864 JUMPI DUP2 SWAP1 POP JUMPDEST PUSH2 0x878 PUSH2 0x870 DUP6 PUSH2 0x738 JUMP JUMPDEST DUP4 ADD DUP3 PUSH2 0x818 JUMP JUMPDEST POP POP JUMPDEST POP POP POP JUMP JUMPDEST PUSH0 DUP3 DUP3 SHR SWAP1 POP SWAP3 SWAP2 POP POP JUMP JUMPDEST PUSH0 PUSH2 0x89B PUSH0 NOT DUP5 PUSH1 0x8 MUL PUSH2 0x880 JUMP JUMPDEST NOT DUP1 DUP4 AND SWAP2 POP POP SWAP3 SWAP2 POP POP JUMP JUMPDEST PUSH0 PUSH2 0x8B3 DUP4 DUP4 PUSH2 0x88C JUMP JUMPDEST SWAP2 POP DUP3 PUSH1 0x2 MUL DUP3 OR SWAP1 POP SWAP3 SWAP2 POP POP JUMP JUMPDEST PUSH2 0x8CC DUP3 PUSH2 0x58A JUMP JUMPDEST PUSH8 0xFFFFFFFFFFFFFFFF DUP2 GT ISZERO PUSH2 0x8E5 JUMPI PUSH2 0x8E4 PUSH2 0x69C JUMP JUMPDEST JUMPDEST PUSH2 0x8EF DUP3 SLOAD PUSH2 0x6F6 JUMP JUMPDEST PUSH2 0x8FA DUP3 DUP3 DUP6 PUSH2 0x83A JUMP JUMPDEST PUSH0 PUSH1 0x20 SWAP1 POP PUSH1 0x1F DUP4 GT PUSH1 0x1 DUP2 EQ PUSH2 0x92B JUMPI PUSH0 DUP5 ISZERO PUSH2 0x919 JUMPI DUP3 DUP8 ADD MLOAD SWAP1 POP JUMPDEST PUSH2 0x923 DUP6 DUP3 PUSH2 0x8A8 JUMP JUMPDEST DUP7 SSTORE POP PUSH2 0x98A JUMP JUMPDEST PUSH1 0x1F NOT DUP5 AND PUSH2 0x939 DUP7 PUSH2 0x726 JUMP JUMPDEST PUSH0 JUMPDEST DUP3 DUP2 LT ISZERO PUSH2 0x960 JUMPI DUP5 DUP10 ADD MLOAD DUP3 SSTORE PUSH1 0x1 DUP3 ADD SWAP2 POP PUSH1 0x20 DUP6 ADD SWAP5 POP PUSH1 0x20 DUP2 ADD SWAP1 POP PUSH2 0x93B JUMP JUMPDEST DUP7 DUP4 LT ISZERO PUSH2 0x97D JUMPI DUP5 DUP10 ADD MLOAD PUSH2 0x979 PUSH1 0x1F DUP10 AND DUP3 PUSH2 0x88C JUMP JUMPDEST DUP4 SSTORE POP JUMPDEST PUSH1 0x1 PUSH1 0x2 DUP9 MUL ADD DUP9 SSTORE POP POP POP JUMPDEST POP POP POP POP POP POP JUMP JUMPDEST PUSH32 0x4E487B7100000000000000000000000000000000000000000000000000000000 PUSH0 MSTORE PUSH1 0x32 PUSH1 0x4 MSTORE PUSH1 0x24 PUSH0 REVERT JUMPDEST PUSH0 DUP2 PUSH1 0x60 SHL SWAP1 POP SWAP2 SWAP1 POP JUMP JUMPDEST PUSH0 PUSH2 0x9D5 DUP3 PUSH2 0x9BF JUMP JUMPDEST SWAP1 POP SWAP2 SWAP1 POP JUMP JUMPDEST PUSH0 PUSH2 0x9E6 DUP3 PUSH2 0x9CB JUMP JUMPDEST SWAP1 POP SWAP2 SWAP1 POP JUMP JUMPDEST PUSH2 0x9FE PUSH2 0x9F9 DUP3 PUSH2 0x46B JUMP JUMPDEST PUSH2 0x9DC JUMP JUMPDEST DUP3 MSTORE POP POP JUMP JUMPDEST PUSH0 PUSH2 0xA0F DUP3 DUP5 PUSH2 0x9ED JUMP JUMPDEST PUSH1 0x14 DUP3 ADD SWAP2 POP DUP2 SWAP1 POP SWAP3 SWAP2 POP POP JUMP JUMPDEST PUSH32 0x4163636F756E7420776974682061646472657373200000000000000000000000 DUP2 MSTORE POP JUMP JUMPDEST PUSH0 DUP2 SWAP1 POP SWAP3 SWAP2 POP POP JUMP JUMPDEST PUSH0 PUSH2 0xA58 DUP3 PUSH2 0x58A JUMP JUMPDEST PUSH2 0xA62 DUP2 DUP6 PUSH2 0xA44 JUMP JUMPDEST SWAP4 POP PUSH2 0xA72 DUP2 DUP6 PUSH1 0x20 DUP7 ADD PUSH2 0x5A4 JUMP JUMPDEST DUP1 DUP5 ADD SWAP2 POP POP SWAP3 SWAP2 POP POP JUMP JUMPDEST PUSH32 0x2068617320616C72656164792063617374206120766F74652121000000000000 DUP2 MSTORE POP JUMP JUMPDEST PUSH0 PUSH2 0xAAE DUP3 PUSH2 0xA1E JUMP JUMPDEST PUSH1 0x15 DUP3 ADD SWAP2 POP PUSH2 0xABE DUP3 DUP5 PUSH2 0xA4E JUMP JUMPDEST SWAP2 POP PUSH2 0xAC9 DUP3 PUSH2 0xA7E JUMP JUMPDEST PUSH1 0x1A DUP3 ADD SWAP2 POP DUP2 SWAP1 POP SWAP3 SWAP2 POP POP JUMP JUMPDEST PUSH32 0x206861732063617374206120766F746500000000000000000000000000000000 DUP2 MSTORE POP JUMP JUMPDEST PUSH0 PUSH2 0xB08 DUP3 PUSH2 0xA1E JUMP JUMPDEST PUSH1 0x15 DUP3 ADD SWAP2 POP PUSH2 0xB18 DUP3 DUP5 PUSH2 0xA4E JUMP JUMPDEST SWAP2 POP PUSH2 0xB23 DUP3 PUSH2 0xAD8 JUMP JUMPDEST PUSH1 0x10 DUP3 ADD SWAP2 POP DUP2 SWAP1 POP SWAP3 SWAP2 POP POP JUMP JUMPDEST PUSH32 0x204164647265737320697320747279696E6720746F2063617374206120766F74 PUSH0 DUP3 ADD MSTORE PUSH32 0x652E2E2E00000000000000000000000000000000000000000000000000000000 PUSH1 0x20 DUP3 ADD MSTORE POP JUMP JUMPDEST PUSH0 PUSH2 0xB8C PUSH1 0x24 DUP4 PUSH2 0xA44 JUMP JUMPDEST SWAP2 POP PUSH2 0xB97 DUP3 PUSH2 0xB32 JUMP JUMPDEST PUSH1 0x24 DUP3 ADD SWAP1 POP SWAP2 SWAP1 POP JUMP JUMPDEST PUSH0 PUSH2 0xBAD DUP3 DUP5 PUSH2 0xA4E JUMP JUMPDEST SWAP2 POP PUSH2 0xBB8 DUP3 PUSH2 0xB80 JUMP JUMPDEST SWAP2 POP DUP2 SWAP1 POP SWAP3 SWAP2 POP POP JUMP INVALID LOG2 PUSH5 0x6970667358 0x22 SLT KECCAK256 0x24 0xFC 0xEE PUSH31 0xC4CEE6D1D54603EF17EE72A3F37B08C04B0EF468978B0268DAB2250964736F PUSH13 0x63430008160033000000000000 "
		},
		"gasEstimates": {
			"creation": {
				"codeDepositCost": "613000",
				"executionCost": "infinite",
				"totalCost": "infinite"
			},
			"external": {
				"addressExists(address)": "infinite",
				"addressList(uint256)": "4966",
				"castVote(address)": "infinite",
				"voteCompletionLogger()": "infinite",
				"voteErrorLogger()": "infinite",
				"voteInitLogger()": "infinite"
			}
		},
		"methodIdentifiers": {
			"addressExists(address)": "a5025222",
			"addressList(uint256)": "b810fb43",
			"castVote(address)": "53358fc4",
			"voteCompletionLogger()": "d3359b8c",
			"voteErrorLogger()": "b8f7c1a4",
			"voteInitLogger()": "e05ce474"
		}
	},
	"abi": [
		{
			"inputs": [],
			"stateMutability": "nonpayable",
			"type": "constructor"
		},
		{
			"anonymous": false,
			"inputs": [
				{
					"indexed": false,
					"internalType": "address",
					"name": "from_address",
					"type": "address"
				},
				{
					"indexed": false,
					"internalType": "string",
					"name": "voted_for",
					"type": "string"
				}
			],
			"name": "castVoteEvent",
			"type": "event"
		},
		{
			"inputs": [
				{
					"internalType": "address",
					"name": "_target",
					"type": "address"
				}
			],
			"name": "addressExists",
			"outputs": [
				{
					"internalType": "bool",
					"name": "",
					"type": "bool"
				}
			],
			"stateMutability": "view",
			"type": "function"
		},
		{
			"inputs": [
				{
					"internalType": "uint256",
					"name": "",
					"type": "uint256"
				}
			],
			"name": "addressList",
			"outputs": [
				{
					"internalType": "address",
					"name": "",
					"type": "address"
				}
			],
			"stateMutability": "view",
			"type": "function"
		},
		{
			"inputs": [
				{
					"internalType": "address",
					"name": "from_address",
					"type": "address"
				}
			],
			"name": "castVote",
			"outputs": [],
			"stateMutability": "payable",
			"type": "function"
		},
		{
			"inputs": [],
			"name": "voteCompletionLogger",
			"outputs": [
				{
					"internalType": "string",
					"name": "",
					"type": "string"
				}
			],
			"stateMutability": "view",
			"type": "function"
		},
		{
			"inputs": [],
			"name": "voteErrorLogger",
			"outputs": [
				{
					"internalType": "string",
					"name": "",
					"type": "string"
				}
			],
			"stateMutability": "view",
			"type": "function"
		},
		{
			"inputs": [],
			"name": "voteInitLogger",
			"outputs": [
				{
					"internalType": "string",
					"name": "",
					"type": "string"
				}
			],
			"stateMutability": "view",
			"type": "function"
		}
	]
}